:020000040800F2
:10000000C0E70020AD7B00081D1800081F1800087D
:100010002118000823180008251800080000000017
:100020000000000000000000000000002718000889
:1000300029180008000000002B1800082D180008DF
:10004000C77B0008C77B0008C77B0008C77B000888
:10005000C77B0008C77B0008C77B0008C77B000878
:10006000C77B0008C77B0008C77B0008C77B000868
:10007000C77B0008C77B0008C77B0008C77B000858
:10008000C77B0008C77B0008C77B0008C77B000848
:10009000C77B0008C77B0008C77B0008C77B000838
:1000A000C77B0008C77B0008C77B0008C77B000828
:1000B000C77B0008CB310008C77B0008C77B00085E
:1000C000C77B0008C77B0008C77B0008C77B000808
:1000D000C77B0008AD7A0008C77B00084D75000893
:1000E000C77B0008C77B0008C77B0008C77B0008E8
:1000F000C77B0008C77B0008C77B0008C77B0008D8
:10010000C77B0008C77B0008C77B0008C77B0008C7
:10011000C77B0008C77B0008C77B0008C77B0008B7
:10012000C77B0008C77B0008C77B0008C77B0008A7
:1001300000F002F800F0B0F80AA090E8000C824449
:100140008344AAF10107DA4501D100F0A5F8AFF226
:10015000090EBAE80F0013F0010F18BFFB1A43F0A5
:1001600001031847CC370400EC3704000A444FF071
:10017000000C10F8013B13F0070408BF10F8014B06
:100180001D1108BF10F8015B641E05D010F8016B4B
:10019000641E01F8016BF9D113F0080F1EBF10F8AF
:1001A000014BAD1C0C1B09D16D1E58BF01F801CBD2
:1001B000FAD505E014F8016B01F8016B6D1EF9D555
:1001C0009142D6D37047000000230024002500266A
:1001D000103A28BF78C1FBD8520728BF30C148BFAA
:1001E0000B6070476E2931F01B80702930F0278535
:1001F000662933F0AE81652933F0AB81672933F08E
:10020000A881612933F0A78103681B0A28BF41F048
:100210008001692930F09884642930F0958475292B
:1002200030F092846F2931F02A83782930F0F384FA
:10023000E92931F0C582E42931F0C282F52931F093
:10024000BF82EF2931F02783F82930F0F284036868
:10025000DB0928BF41F08001632931F03482732922
:1002600031F03982E32931F03385F32931F03885D3
:10027000002070471FB531F019FB04000020002159
:1002800032F0FCF9401C60600020002132F0E0F9FF
:10029000E0601FBD10B510BD31F0C0FD1146FFF785
:1002A000E9FF01F005FA31F0E7FD03B4FFF7F2FFD3
:1002B00003BC07F0A5FB0000EFF30980704780F353
:1002C00009887047EFF30880704780F3088870470B
:1002D00040BA7047C0BA704708B5D308BDF80020CF
:1002E00063F30402ADF800208A08BDF8001062F341
:1002F0004A11ADF80010C108BDF8000061F3CF202D
:10030000ADF8000080B208BD70B5FF481E21412243
:1003100001700A214170462181702821C17002714B
:1003200041715A2181713221C17107F07DF94FF479
:10033000A06007F05BFC4FF4E134204607F06AFB55
:1003400001F020FB02F056FF01F044FB062006F00E
:100350008CFD03F08DF906F05BFEEC4801688847E0
:1003600040F2E731472002F003FF0BF07EFB08F07C
:10037000DAFF09F019F807F025F907F03BF94FF417
:10038000FA7502E0284607F066F903F051F90028F3
:10039000F8D1204606F0D2FE002808D0DA49022023
:1003A00054394874BDE87040D9A030F065BB70BDC9
:1003B000D54910B54E39481E03F012F9D2484D38D0
:1003C00006F03CFED048BDE810404C3803F063B95D
:1003D00010B50446002103E010F0EDFA002120469C
:1003E00010F002FA0028F7D110BD10B501F0D5F9D0
:1003F000BDE81040ECE72DE9F05F01F0CEF9C24C0A
:10040000543C6061C94801F0A3F9014600226069CB
:100410000FF0E0FF0022FF2160690FF0F4FF606938
:100420000BF058FB2822D500064629460DF0FAFAB3
:1004300000231A46022130460DF055FDDFF8F092F8
:10044000484601F085F90146002230460FF0C2FF10
:100450000022FF2130460FF0D6FF102130460BF06E
:1004600076FB30462BF0FCFC0646B2A12CF050F88F
:1004700001F07FF901460022304610F03DF90022DC
:10048000B149304610F058F900231A460921304688
:100490000DF029FD60690BF01DFB80463C228C218C
:1004A0000DF0C0FA32230A22012140460DF01BFD57
:1004B000A64801F04DF90146002240460FF08AFFA0
:1004C0000022FF2140460FF09EFF102140460BF016
:1004D0003EFB40462BF0C4FC07469DA12CF018F8CB
:1004E00001F047F901460022384610F005F96FF097
:1004F000040633460022022138460DF0F4FC404643
:100500002BF0AEFC94A160622CF002F801F031F9FE
:1005100001460022606A10F0EFF805230022194618
:10052000606A0DF0E0FC60690BF0D4FA82463C2270
:100530008C210DF077FA770032233A46032150469A
:100540000DF0D1FC4FF42A4001F002F901460022DF
:1005500050460FF03FFF0022FF2150460FF053FF9F
:10056000102150460BF0F3FA50462BF079FC8046F0
:100570007BA12BF0CDFF01F0FCF8014600224046A4
:1005800010F0BAF833460022022140460DF0ABFCD1
:1005900050462BF065FC74A1A0622BF0B9FF01F06E
:1005A000E8F801460022A06A10F0A6F80523002210
:1005B0001946A06A0DF097FC60690BF08BFA834630
:1005C0003C228C210DF02EFA6FF0310843460A22AE
:1005D000042158460DF087FC654801F0B9F8014642
:1005E000002258460FF0F6FE0022FF2158460FF079
:1005F0000AFF102158460BF0AAFA58462BF030FC9F
:1006000082465CA12BF084FF01F0B3F80146002282
:10061000504610F071F833460022022150460DF08A
:1006200062FC58462BF01CFC55A1E0622BF070FFD9
:1006300001F09FF801460022E06A10F05DF8052302
:1006400000221946E06A0DF04EFC60690BF042FA98
:1006500082463C228C210DF0E5F943463A460621BC
:1006600050460DF040FC4BF6FF7001F071F801466A
:10067000002250460FF0AEFE0022FF2150460FF040
:10068000C2FE102150460BF062FA50462BF0E8FBF8
:1006900007463DA12BF03CFF01F06BF8014600221C
:1006A000384610F029F833460022022138460DF072
:1006B0001AFC50462BF0D4FB35A120632BF028FF09
:1006C00001F057F801460022206B10F015F80523C1
:1006D00000221946206B0DF006FC60690BF0FAF958
:1006E00006461E2229460DF09DF900231A460521D3
:1006F00030460DF0F8FB484601F02AF8014600228A
:1007000030460FF067FE47E05400002074000020E0
:1007100041544B2D4D57383236364420496E69745A
:10072000204661696C6564210D0A0000E6D8AD00C1
:10073000B4824600536D61727420466C6F776572A7
:1007400020506F7400000000642B04087F7FFF00BE
:1007500054656D7000000000323520430000000039
:1007600048756D690000000036302025000000004B
:1007700000D7FF00536F696C2048756D6900000059
:1007800034302025000000004C69676874000000C8
:1007900038302025000000000022FF2130460FF0F5
:1007A00032FE102130460BF0D2F930462BF058FBC8
:1007B0000546FEA12BF0ACFE00F0E5FF014600224D
:1007C00028460FF099FF0022FA4928460FF0B4FF9F
:1007D000607A10B16FF01D0201E06FF01302062382
:1007E000052128460DF07FFB30462BF039FBF2A1A6
:1007F00060632BF08DFE00F0C6FF01460022606BA7
:100800000FF07AFF607A08B1172200E01222606BC5
:10081000BDE8F05F062305210DF065BB10B5E84C7F
:10082000E8A16279606A2BF0A9FEA279E7A1A06A2B
:100830002BF0A4FEE279E5A1E06A2BF09FFE227A7C
:10084000E2A1206B2BF09AFE607A012805D0DAA194
:10085000606BBDE810402BF091BEDEA1F8E72DE9FA
:10086000F04100200BF036F9D54CA061DB4800F0D8
:100870006FFF01460022A0690FF0ACFD0022FF21AE
:10088000A0690FF0C0FDA0690BF024F92822D60062
:10089000054631460DF0C6F800231A4602212846C7
:1008A0000DF021FBCE4F384600F052FF01460022EA
:1008B00028460FF08FFD0022FF2128460FF0A3FDF0
:1008C000102128460BF043F928462BF0C9FA0546BB
:1008D000C4A12BF01DFE00F04CFF0146002228466B
:1008E0000FF00AFF0022C14928460FF025FF002320
:1008F0001A46092128460DF0F6FAA0692BF0B0FA45
:10090000A063617A09B1BA4900E0BA492BF000FE50
:1009100000F039FF01460022A06B0FF0EDFE00222F
:10092000B549A06B0FF008FF3C230A220121A06B00
:100930000DF0D9FAA0690BF0CDF804461E2231461D
:100940000DF070F800231A46052120460DF0CBFA71
:10095000384600F0FDFE0146002220460FF03AFD29
:100960000022FF2120460FF04EFD102120460BF003
:10097000EEF820462BF074FA0446A0A12BF0C8FD37
:1009800000F001FF0146002220460FF0B5FE0022D4
:10099000884920460FF0D0FE2046BDE8F0410623EE
:1009A000002205210DF09FBA85484278417A806B7C
:1009B000052A1DD2DFE802F003080D12170009B165
:1009C0008B4913E08B4911E009B195490EE0954937
:1009D0000CE009B1944909E0944907E009B1944950
:1009E00004E0944902E0002902D093492BF090BD25
:1009F00070472DE9F04700200BF06CF8704C206236
:100A0000764800F0A5FE01460022206A0FF0E2FCC5
:100A10000022FF21206A0FF0F6FC206A0BF05AF842
:100A20004FF4A0790546282249460CF0FBFF00232D
:100A30001A46022128460DF056FADFF8A4A15046C6
:100A400000F086FE0146002228460FF0C3FC00227B
:100A5000FF2128460FF0D7FC102128460BF077F82D
:100A600028462BF0FDF90546A07A01287DD0022802
:100A70007CD072A128462BF04BFD00F07AFE014697
:100A8000002228460FF038FE0022584928460FF071
:100A900053FE00231A46092128460DF024FA206A45
:100AA0000BF018F806463C22C8210CF0BBFF3C2393
:100AB0000022022130460DF016FA664800F048FE8A
:100AC0000146002230460FF085FC0022FF2130460F
:100AD0000FF099FC102130460BF039F830462BF01E
:100AE000BFF905465CA12BF013FD00F04CFE01465A
:100AF000002228460FF000FE00223F4928460FF052
:100B00001BFE00230A22072128460DF0ECF930468F
:100B10002BF0A6F90346A064294DA07A543501288C
:100B200040D002283FD0AA7901283DD027A11846FD
:100B30002BF024FD00F027FE01460022A06C0FF0F0
:100B4000DBFD00221B49A06C0FF0F6FD6FF00908D9
:100B5000002342460821A06C0DF0C5F9206A0AF076
:100B6000B9FF3C220746C82101E0F1E0F2E00CF0B9
:100B700059FF82230022022138460DF0B4F938488B
:100B800000F0E6FD0146002238460FF023FC00226B
:100B9000FF2138460FF037FC102138460AF0D7FF06
:100BA00038465FE0D8E0D9E0DAE000004D6F6465D8
:100BB0003A20000000A303084175746F0000000094
:100BC000000000202564204300000000256420254B
:100BD000250000004D616E75616C0000E6D8AD0027
:100BE000B48246004D656E7500000000642B040859
:100BF000B43104087430040818E103084B45595F08
:100C000055503A436F6E6672696D094B4559303ADB
:100C100020446F776E094B4559313A5570000000FA
:100C200018320408C43004087C3204081431040863
:100C3000E032040864310408443304084C696768EE
:100C40007420496E74656E73697479204C696D699E
:100C500074730000EBCE8700557070657200000061
:100C60008BECFF002BF0FCF80646F8A12BF050FCB3
:100C700000F089FD0146002230460FF03DFD0022C4
:100C8000F44930460FF058FD00230A220721304670
:100C90000DF029F938462BF0E3F803466064A07A9A
:100CA000012860D0022860D0EA7901285FD0AFF235
:100CB000E40118462BF062FC00F065FD01460022BD
:100CC000606C0FF019FD0022E349606C0FF034FDF9
:100CD000002342460821606C0DF005F9206A0AF0F5
:100CE000F9FE04461E2249460CF09CFE00231A46DB
:100CF000052120460DF0F7F8504600F029FD014689
:100D0000002220460FF066FB0022FF2120460FF054
:100D10007AFB102120460AF01AFF20462BF0A0F89B
:100D20000446CEA12BF0F4FB00F02DFD014600227D
:100D300020460FF0E1FC0022C74920460FF0FCFCE2
:100D40002046BDE8F0470623002205210DF0CBB870
:100D5000C9A18FE6CDA18DE62A78E5E6AA78E3E67B
:100D6000AFF2A011E3E66A789FE7EA789DE7AFF279
:100D7000AC119EE770B5CA4C04F15405A07A012865
:100D800018D0022818D0AA79012817D0AFF2C411C0
:100D9000A06C2BF0F3FBA07A012812D0022812D00D
:100DA000EA79012811D0AFF2DC11606CBDE8704027
:100DB0002BF0E4BB2A78E7E72A79E5E7AFF2FC11EC
:100DC000E6E76A78EDE76A79EBE7AFF20821ECE74E
:100DD0002DE9F04700200AF07DFEB14CE061B148FA
:100DE00000F0B6FC01460022E0690FF0F3FA0022A1
:100DF000FF21E0690FF007FBE0690AF06BFE4FF49A
:100E0000A0780546282241460CF00CFE00231A4625
:100E1000022128460DF067F8DFF88C92484600F072
:100E200097FC0146002228460FF0D4FA0022FF2149
:100E300028460FF0E8FA102128460AF088FE2846D6
:100E40002BF00EF8054699A12BF062FB00F091FC07
:100E50000146002228460FF04FFC00229849284600
:100E60000FF06AFC00231A46092128460DF03BF8D2
:100E7000E0690AF02FFE064664228C210CF0D2FDB8
:100E800000231422072130460DF02DF88D4800F084
:100E90005FFC0146002230460FF09CFA0022FF2141
:100EA00030460FF0B0FA102130460AF050FE3046BE
:100EB0002AF0D6FF054684A12BF02AFB00F063FC44
:100EC0000146002228460FF017FC002261492846FF
:100ED0000FF032FC0A230022022128460DF003F80D
:100EE00030462AF0BDFF2064E17809B178A100E026
:100EF00079A12BF00DFB00F046FC01460022206C8E
:100F00000FF0FAFB00225449206C0FF015FC6FF033
:100F100009073B4600220521206C0CF0E4FFE06944
:100F20000AF0D8FD064664228C210CF07BFD0023DC
:100F30007A00082130460CF0D6FF694800F008FC22
:100F40000146002230460FF045FA0022FF213046CC
:100F50000FF059FA102130460AF0F9FD30462AF018
:100F60007FFF0546AFF2E0712BF0D2FA00F00BFCE8
:100F70000146002228460FF0BFFB002235492846D3
:100F80000FF0DAFB0A230022022128460CF0ABFF07
:100F900030462AF065FFE063A17809B14CA100E07A
:100FA0004DA12BF0B5FA00F0EEFB01460022E06BFC
:100FB0000FF0A2FB00222849E06B0FF0BDFB3B467F
:100FC00000220521E06B0CF08EFF206A0AF082FD02
:100FD00004461E2241460CF025FD00231A46052139
:100FE00020460CF080FF484600F0B2FB014600228C
:100FF00020460FF0EFF90022FF2120460FF003FA00
:10100000102120460AF0A3FD20462AF029FF0446BD
:1010100034A12BF07DFA00F0B6FB014600222046F9
:101020000FF06AFB00220C4920460FF085FB20469A
:10103000BDE8F0470623002205210CF054BF10B58F
:10104000174CA07808B122A15AE057E04C6F7765A1
:101050007200000018E1030800A303084B45593053
:101060003A204C6F7765722B094B4559313A5570D0
:101070007065722B0000000054656D7065726174BC
:10108000757265204C696D6974730000536F696CEB
:101090002048756D6964697479204C696D697400C4
:1010A00000000020E6D8AD00B48246004D616E75A8
:1010B000616C204F7065726174696F6E0000000092
:1010C000642B0408EBCE8700576174657200000042
:1010D0004F70656E00000000436C6F736500000088
:1010E0008BECFF004B4559303A205761746572090B
:1010F0004B4559313A4C696768740000AFF22801DA
:10110000E06B2BF005FAE07810B1AFF23C0101E0A2
:10111000AFF23C01206CBDE810402BF0F9B970B57E
:10112000FE4C0546E06C20B10FF045FC0020E06469
:1011300020652846BDE8704025F0A2BC10B5F74CEC
:10114000E06C002852D12078002849D0012849D0ED
:10115000022849D0D4F820000AF0BCFC2822C8217B
:10116000E0640CF05FFC6FF0090213460621E06CAE
:101170000CF0B9FEEA4800F0EBFA01460022E06C00
:101180000FF028F90022FF21E06C0FF03CF900225B
:101190000821E06C0FF0EEFA1021E06C0AF0D7FCA9
:1011A0000121E06C0AF0A0FCE06C2AF059FEAFF2DD
:1011B0003C1120652BF0ACF900F0DBFA014600226F
:1011C000206D0FF099FA0022D649206D0FF0B4FA85
:1011D0000023206DBDE810401A4609210CF083BEA3
:1011E0006069B9E7A069B7E7E069B5E710BD10B578
:1011F0000446CA480121C06C0AF076FC2046BDE8CE
:10120000104025F03DBC70B5C44C0D460146206D24
:101210002BF07EF90121E06C0AF099FC00222946AE
:10122000AFF2051025F0D0FCBDE87040012125F09B
:10123000FFBC2DE9F041032602270125B74C052804
:101240003BD2DFE800F003050D0F3000A57200E08F
:10125000A772FFF7CAF8FFF7CCFB2670206A28E0D8
:10126000A672F6E7607A20B10020607218B10520FE
:1012700002E00120F9E70420207100206070FFF7F0
:10128000B4F8FFF7ECFA2570A06908F0B7F8FFF79B
:1012900055FF607A08B1A4A000E0A6A0BDE8F04127
:1012A00040F6B831AFE7FFF7A0F8FFF791FD2770E0
:1012B000E069BDE8F04108F0A1B8BDE8F0812DE992
:1012C000F047964C0125217829B30026012932D018
:1012D00002295BD0A14603291BD1214691F80BC0FE
:1012E0000C7B4F7B8B7BCE7B0A7C91F80A80543140
:1012F000012872D0022872D003280AD00A2808D107
:10130000FFF773F8FFF7ABFA4C46A06908F076F8E0
:101310002570BDE8F0870128FBD00228F9D003280A
:10132000F7D1FFF762F8FFF79AFA2570A069BDE8D8
:10133000F04708F063B8794A01285178127914D03F
:10134000022818D003280BD00A28E2D16670FFF7D4
:101350004CF8FFF750F8606908F050F82670D8E7AD
:101360000846FFF766FF6670D3E7491CB1FBF2F051
:1013700002FB101005E08818401E90FBF2F102FB02
:1013800011006070BDE8F047FFF70EBB01280AD0DE
:10139000022815D00328BCD00A28BAD1FFF725F8B7
:1013A000FFF75DFAB1E7E178654821B1E670802189
:1013B00006F03BFD0EE0E570802106F034FD09E00B
:1013C000A178604819B1A670C0F8945102E0A570E8
:1013D000C0F89461BDE8F04731E61BE0FFE7B8F1E3
:1013E000010F09D0B8F1020F0DD088790A30B04250
:1013F00000D802468A7119E008780A30604500D8A2
:1014000004460C7012E008790A30B84200D803464E
:101410000B710BE0B8F1010F0BD0B8F1020F0FD038
:10142000C8790A30B04200D80246CA71BDE8F04718
:10143000A0E448780A30604500D804464C70F5E7CF
:1014400048790A30B84200D803464B71EEE72DE9DF
:10145000F047324C2078002876D104F154056079A9
:101460002978DFF8DC804FF47F09814205D24021E2
:10147000404606F0D8FC484608E0697881424FF0C3
:101480004001404605D906F0D0FCFF2000F060F98D
:1014900003E006F0CAFC00F06CF901460022606A25
:1014A0000FF02AF9A978A079814201D2484603E0D9
:1014B000E978814203D9FF2000F04AF901E000F009
:1014C00058F901460022A06A0FF016F92979E0794F
:1014D0000026012781420ED2607A30B9E07820B12F
:1014E0008021404606F0A1FCE670484600F030F945
:1014F0000146002210E06979814240D9607AE178A2
:10150000084304D18021404606F08DFCE770FF209F
:1015100000F01EF900220146E06A16E000000020FB
:10152000B482460000A303084D616E75616C204DC6
:101530006F6465004175746F204D6F646500000035
:10154000000801400000234218E00FF0D5F8A97907
:10155000207ADFF85482814214D2484600F0F8F82D
:1015600001460022206B0FF0C7F8607A002805D1F1
:10157000A078002802D0C8F89471A670C9E600F0DF
:10158000F8F8C7E7E97981420FD9FF2000F0E0F8C9
:1015900001460022206B0FF0AFF8607AA178084373
:1015A000ECD1C8F89461A770B3E600F0E2F8014608
:1015B000206BBDE8F04700220FF09EB870B52FF009
:1015C000A2F87A4C01224FF4FA65637A0021DBB16C
:1015D000754B01281BD0022821D0754B032826D03B
:1015E00004282ED0052836D006283DD0072844D020
:1015F00008285CD162720520207161702078002873
:101600003ED001283FD040E0082850D1F2E7A27038
:10161000C3F89411FFF792FD294666A03FE0A17040
:10162000C3F89421FFF78AFD294665A037E0E270F0
:101630008021184606F0F7FBFFF780FD294663A0DE
:101640002DE0E1708021184606F0EFFBFFF776FDF4
:10165000294661A023E04021184606F0E4FBFFF78D
:101660006DFD29465FA01AE04021184606F0DDFB1B
:10167000FFF764FD29465DA011E061720420BBE71D
:10168000FFF7CCF801E0FFF78FF9FFF757FD607A1D
:1016900010B1AFF26C1001E0AFF268102946FFF70D
:1016A000B2FD2078022802D1BDE87040C7E470BDC9
:1016B00008B50024FEF728FEFEF79DFE3B4D40F6E0
:1016C000B836687C022802D02FF072F840B1FFF7DC
:1016D00035FD314647A0FFF796FD002068740DE008
:1016E00001206874FFF72AFD314648A0FFF78BFD03
:1016F000687C18B12D4812302EF0EDFF002000F06C
:1017000083F9FFF7DCFD002005F0F8FB10B10A209B
:10171000FFF7D5FDFEF74CFE042C0BD1FFF797FE2B
:10172000A87C30B1297A0091EB79AA7969792EF0F9
:10173000B9FF0024FFF742FF287808B9FFF76EF8D9
:1017400025F0ACF9322005F09DFF641CE4B2D5E72A
:101750004FF478414FF4FC6201EA102102EA501282
:1017600008B51143C0F3C4000143ADF8001088B2BE
:1017700008BDFF2208B511461046FEF7ADFD0090EA
:10178000BDF8000008BD002208B511461046FEF75E
:10179000A3FD0090BDF8000008BD10B521F08CFF3E
:1017A000BDE8104007F01ABE0000234200000020F0
:1017B000000801404C69676874204F4E000000002B
:1017C0004C69676874204F46460000005761746595
:1017D00072204F4E000000005761746572204F4622
:1017E0004600000046756E204F4E000046756E2084
:1017F0004F4646005769466920436F6E6E656374B5
:10180000204661696C6564210000000057694669E3
:1018100020436F6E6E656374656421007047FEE758
:10182000FEE7FEE7FEE7704770477047704700002D
:101830000CB500214B4801910091026842F48032BE
:1018400002604FF4A063026802F400320092019A31
:10185000521C0192009A12B9019A9A42F3D102687D
:10186000920333D5012100913F490A6842F01002EA
:101870000A600A6822F003020A600A6842F0020263
:101880000A604168416041684160416841F480619B
:101890004160416821F47C114160416841F4E811E4
:1018A0004160016841F08071016001688901FCD5E7
:1018B000416821F003014160416841F0020141604B
:1018C0004168C1F381010229FAD10CBD00910CBD20
:1018D000244810B5016841F0010101604168234AC4
:1018E000114041600168224A11400160016821F401
:1018F00080210160416821F4FE0141604FF41F0125
:101900008160FFF795FF1B494FF00060086010BD34
:10191000144910B54868184A10F00C03174803D052
:10192000042B01D0082B0AD002604968134AC1F386
:101930000311121D515C0268CA40026010BD4A6862
:101940004B6802F470124FF0020413F4803F04EB72
:10195000924202D04B689B0301D5094B00E0064B35
:101960005A43E1E700100240002002400000FFF867
:10197000FFFFF6FE08ED00E000127A005C00002098
:1019800000093D0038B50121482006F0C8FB20249D
:10199000ADF8004010208DF8030003200B4D8DF8AA
:1019A00002006946284606F0D0F92021284606F0B4
:1019B0003AFAADF80040064C6946204606F0C5F9F3
:1019C0002021204606F02FFA38BD0000000C01400F
:1019D0000018014008B50121442006F0A0FB1820A2
:1019E000ADF8000048208DF8030069462D4806F048
:1019F000ACF90120ADF8000028208DF803006946FD
:101A0000294806F0A2F908BD2DE9F041274C264FE0
:101A1000244D012608B1267001E0207878B110210C
:101A2000284606F0ECF988B10821284606F0E7F9C7
:101A300060B10121384606F0E2F9012806D01021F4
:101A4000284606F0DCF901281DD028E00A2005F020
:101A500019FE002020701021284606F0D0F958B158
:101A60000821284606F0CBF948B10121384606F096
:101A7000C6F9012805D012E00120BDE8F08102205E
:101A8000FBE70320F9E70821284606F0B8F901280A
:101A900005D10121384606F0B2F900B926700020C0
:101AA000EBE7000000180140000801407000002032
:101AB00038B50121082006F032FBC020ADF8000047
:101AC00010208DF803000320824C8DF80200694637
:101AD000204606F03AF9C021204606F0A4F938BDA8
:101AE00070B57C48016821F070410160016841F0E7
:101AF00040510160784C0120C4F89C01C4F8980161
:101B0000042004F5CC7405F0A6FD002565600420D2
:101B100005F0A1FD256070BD6E4810B5016821F08B
:101B200070410160016841F0405101606A4C002041
:101B3000C4F89801C4F89C01042004F5CC7405F0A5
:101B40008AFD012020606060BDE81040042005F09F
:101B500082BD70B55F480024016821F070410160CA
:101B6000016841F0004101605B4D0126C5F89C61B0
:101B7000304605F070FDC5F89861012005F06BFD59
:101B800007E0641CE4B2FA2C03D9FFF7C5FF01207B
:101B900070BDD5F81C010028F3D1C5F8980170BDBF
:101BA00070B54D4C0025C4F898514A48016821F0A1
:101BB00070410160016841F040510160C4F89C51DE
:101BC000022004F5CC7405F046FD012020600220BF
:101BD00005F041FD256070BD70B53F4C0025C4F88F
:101BE00098513C48016821F070410160016841F062
:101BF000405101600126C4F89C61022004F5CC74B8
:101C000005F029FD2660022005F025FD256070BD48
:101C10002DE9F04106462F48016821F0704101602E
:101C2000016841F0405101602B4C0027C4F89871C5
:101C30003D464FF00108300602D5C4F89C8101E012
:101C4000C4F89C717006060E022005F004FDC4F86D
:101C50009881022005F0FFFCC4F89871022005F07D
:101C6000FAFC6D1CEDB2082DE5D3BDE8F0812DE93D
:101C7000F047814617480024016821F07041016057
:101C8000016841F000410160134E254627464FF0A0
:101C9000010800BFC6F89871022005F0DCFCC6F808
:101CA00098816006040ED6F81C0108B1641CE4B2E9
:101CB000012005F0D0FC6D1CEDB2082DEAD3B9F17E
:101CC000000F04D0FFF76CFF2046BDE8F087FFF758
:101CD00083FFF9E7000C014000802142FFF7E8BED6
:101CE00010B50446FFF7FCFE200AA02101EB4000DE
:101CF000C0B2FFF78DFFFFF72CFFE0B2FFF788FFC0
:101D0000FFF727FFFFF7ECFEA120FFF781FFFFF7AA
:101D100020FF0020FFF7ABFF0446FFF7FDFE204643
:101D200010BD70B50D460446FFF7DAFE200AA0216B
:101D300001EB4000C0B2FFF76BFFFFF70AFFE0B214
:101D4000FFF766FFFFF705FF2846FFF761FFFFF784
:101D500000FFFFF7E1FEBDE870400A2005F092BCED
:101D60002DE9F04116460D460746002409E0E00043
:101D700025FA00F0C1B2381980B2FFF7D2FF641C17
:101D8000E4B2B442F3D3BDE8F0812DE9F0410D4651
:101D90000146002004464E1908E00702301B401E91
:101DA00080B2FFF79DFF641C3844E4B2AC42F4D328
:101DB000E9E710B5FF20FFF793FF55280AD055211A
:101DC000FF20FFF7AEFFFF20FFF78AFF552801D065
:101DD000012010BD002010BD70B514460D4606460A
:101DE00008E03046711C8EB2FFF77AFF641E05F8DA
:101DF000010BA4B2002CF4D170BD70B516460C4690
:101E0000054606E021782846FFF78BFF6D1CADB232
:101E1000641C761EB6B2F5D270BD00002DE9F05FED
:101E2000DFF80C940546002422460221484605F0BE
:101E300036FD4FF4007800224146FE4F384605F04B
:101E40002EFD4FF4006B00225946384605F027FD61
:101E5000BA4600264F46280601D5012200E000229E
:101E60004146504605F01BFD6806050E0022022182
:101E7000384605F014FD012005F0EDFB012202219A
:101E8000384605F00CFD761CF6B2082EE3D306208A
:101E900005F0E1FB002202213E46384605F0FFFC3A
:101EA000012005F0D8FB01220221304605F0F7FCA5
:101EB000012005F0D0FB00220221304605F0EFFCA6
:101EC00000254FF6FF7700BF07EA440400220221F5
:101ED000304605F0E4FC012005F0BDFB01220221A3
:101EE000304605F0DCFC0421304605F0E2FC08B188
:101EF000641CA4B26D1CEDB2102DE5D3240901229F
:101F00005946504605F0CBFC2046BDE8F09FFEB593
:101F1000064600256C463046FFF780FF24F8150082
:101F20006D1CADB2052DF6D30020431C99B20BE019
:101F300034F8102034F81150AA4203D924F8105074
:101F400024F81120491C89B20529F1D398B204283C
:101F5000EBD300215FF0010034F81020401C114445
:101F600080B289B20428F7D30320B1FBF0F0FEBDA4
:101F700070B50646B0480D4690F84400C00705D03D
:101F80009020FFF7C4FF0446D02004E0D020FFF7E4
:101F9000BEFF04469020FFF7BAFF3480288070BD52
:101FA0007FB50C460546694602A8FFF7E1FF01A987
:101FB00003A8FFF7DDFFBDF80C30BDF80820934201
:101FC00003D803F13200824205D39A421FD802F1AE
:101FD000320083421BD2BDF80410BDF800008142DC
:101FE00003D801F13206B04204D388420FD8323010
:101FF00081420CD2D01840082880BDF80000BDF8FE
:102000000410084440082080012004B070BD002066
:10201000FBE72DE9F843054616460D30009282B2E3
:10202000A5F10C000C4680B20B4604F06EFC04F1E6
:102030000D0083B2193881B22A461046009604F08A
:1020400064FC671C05F10109B9B21FFA89F0324638
:1020500004F00BF9A5F10108B9B21FFA88F0324675
:1020600004F003F9671EB9B21FFA89F0324604F092
:10207000FCF8B9B21FFA88F0324604F0F6F801B065
:10208000334621462846BDE8F043062204F0BDBC95
:102090002DE9F04117460C46064604F0E6F8751C9B
:1020A000A8B23A46214604F0E0F8641CA1B23A46D0
:1020B000304604F0DAF8A1B2A8B23A46BDE8F041E1
:1020C00004F0D3B870B505464FF48061594805F067
:1020D000F0FB594C30B1A08E010444D520F40040EF
:1020E000A08647E0544800F120010C3015B1FFF7FD
:1020F00057FF2DE0FFF754FF50B3504E3088400893
:1021000031F054F90546A089B4F84010401A00B2E5
:1021100031F034F9A16B31F04FF8294630F0EAFF85
:1021200031F00CF9A0817088400831F03FF9054684
:10213000208CB4F84210401A00B231F01FF9E16B64
:1021400031F03AF8294630F0D5FF31F0F7F8208425
:10215000A08E00040ED44FF44040A086A089E083F6
:10216000208C608606E00020E08360864FF6FF70DA
:10217000A0812084002070BD2F4910B538310C2279
:102180002820FFF73AFE0A21BDE810403420FFF76F
:10219000C8BD294910B538310C222820FFF71CFE94
:1021A0003420FFF79DFD0A2801D0002010BD01203A
:1021B00010BD2DE9FF5F88B0204D074600240DF1CA
:1021C0000C094FF478484FF0100A4FF0A00B00BFF5
:1021D00037F82430621C1AA103A82EF059FCCDF860
:1021E00000A0CDE9019804EB84010BEB81016B8821
:1021F0002A880E46282004F0B7FD07EB8400621CF5
:10220000438811A103A82EF043FCCDF800A0CDE92E
:1022100001986B882A883146782004F0A5FD641C5B
:10222000E4B2052CD4D34FF6FF70009028880FE05D
:10223000000C0140001C014074000020F40200204A
:102240007825643A256400007925643A2564000005
:10225000401E04EB840182B20BEB81041023214663
:10226000282004F005FBDDE90A23FCA103A82EF0D9
:102270000FFC4FF0000B8DF813B0CDF800A0CDE9A6
:102280000198464657466B882A882146282004F044
:102290006BFDDDE91623F4A103A82EF0F9FB8DF800
:1022A00013B00097CDE901966B882A8821467820E3
:1022B00004F05AFD0CB028E62DE9F04F00254FF64A
:1022C000FF7B91B02E46584604F01BF9E9481027D1
:1022D0004FF4784400680097CDE901042821642375
:1022E000A022084604F040FD142122460846FFF7CC
:1022F00090FEE14C0020DFF88493A0864FF00108A7
:102300004FF47A7A616801208847A08EB8EB903F3D
:102310004FD120F48040A08604A8A18920F8251080
:1023200000EB85006D1C0026218CEDB24180062D4E
:102330003FD2DFE805F03E031020314A14215A460F
:102340000846FFF766FEB9F800004FF478421438EB
:1023500080B214212BE0B9F800005A46143880B23C
:102360001421FFF756FEB9F802004FF478421438F2
:1023700081B214201BE0B9F802005A46143881B229
:102380001420FFF746FEB9F80200143881B2B9F8FC
:102390000000143880B208E0584604F0B2F8B9F8EA
:1023A0000210B9F80000490840084FF47842FFF7DE
:1023B00030FE0A2005F066F9761CB6B25645A1D962
:1023C000FFF7E7FE11B0BDE8F08FBDF81400BDF8CF
:1023D0001010401A00B20090BDF81C00BDF8181093
:1023E000401A00B20190BDF81E00BDF81610401A48
:1023F00000B20A90BDF81A00BDF81210401A00B2DF
:102400000990019830F0B9FB05460B91009830F027
:10241000B4FB2A460B9B30F0FBF9CDE90201099889
:1024200030F0ABFB05460B910A9830F0A6FB2A462C
:102430000B9B30F0EDF9CDE90B10DDE90201002234
:10244000134630F0C5FB03D2039981F0004103919C
:10245000DDE90B100022134630F0BAFB03D20B99D2
:1024600081F000410B91DDE902014FF066352A460B
:10247000834B30F0ADFB73D3DDE90201814A824B1F
:1024800030F0E0FC6CD3DDE90B102A467C4B30F0D9
:102490009FFB65D3DDE90B107A4A7B4B30F0D2FC11
:1024A0005ED3009941F6FE7001F6FF71814257D864
:1024B0000A9901F6FF71814252D8019901F6FF7124
:1024C00081424DD8099901F6FF71814248D80098A0
:1024D000E8B30A98D8B30198C8B30998B8B3B9F863
:1024E00000004D464000503830F048FF0646DDE918
:1024F0000001084430F042FF314630F05DFE44F800
:10250000380F68884000503830F038FF0646DDE963
:102510000910084430F032FF314630F04DFE606063
:10252000BDF820002081BDF8220060815C4658463D
:1025300003F0E7FF1F2055A10097CDE901106B883C
:102540002A886E21232004F00FFC504600E007E0AB
:1025500005F098F8FFF710FE204603F0D2FF31E7B0
:10256000B9F80210B9F800000025490840085A4699
:10257000FFF74FFD14214FF478420846FFF749FD5D
:10258000DDE90B10DDE90223CDE9000104A8FFF726
:1025900010FEB7E67CB5394E374C424DB07900F0AD
:1025A000010084F84400B088A0F5EE41963903D1CB
:1025B00000F08FFC00287DD0B088A0F5AA4110392A
:1025C00079D0A0F51841063975D0A0F58641423979
:1025D00071D0A0F5864184396DD0A0F580511839AD
:1025E00069D0A0F5C851633966D0A0F5E0418439BF
:1025F00062D0A0F5E04116395ED02B48816941F0E8
:1026000080018161816941F080018161816941F0CE
:1026100008018161816941F080018161816941F036
:10262000080181610124214D0023011500941A46FF
:102630002846019405F0D3F81D4E002300941A4655
:1026400004213046019405F0CAF8012200940023C9
:1026500051022846019405F0C2F82EE070783A2520
:10266000302E32660000000070793A25302E326636
:10267000000000005C35030874000020F402002014
:102680006666EE3FCDCCCCCCCCCCF03F546F7563BE
:10269000682053637265656E2041646A75737420A7
:1026A0004F4B2100CB2F000800100240001C0140BE
:1026B000000C01401FE01CE025E0009400230122F3
:1026C00002213046019405F08AF80122009400238B
:1026D000D1022846019405F082F81949A1F11400AD
:1026E000FFF746FCFFF7FAFAFFF753FDD8B10020D9
:1026F0007CBD00F0EEFB656094F8440040F0800083
:1027000084F84400F3E700F0A4F948B100F0E1FBDD
:10271000C4F8045014F8440F40F080002070E6E73D
:1027200008486060F6E74FF6FF7003F0EAFEFFF737
:10273000C3FDFFF721FDFFF72CFD01207CBD00004C
:1027400094000020732B0008052004F084BF38B5E6
:102750000121882005F0E3FC0220ADF800001020E4
:102760008DF8030003208F4C8DF802006946204647
:1027700005F0EBFA0221204605F055FB8A4D641561
:10278000ADF800406946284605F0DFFA21462846A4
:1027900005F049FB38BD70B58348001D016821F084
:1027A000F0010160016841F0300101607F4C0120BF
:1027B000C4F8A4017E4DC5F884011E2004F5D2742E
:1027C00005F5C27504F047FF00262660052004F0D9
:1027D00042FF2E6070BD70B57348001D016821F086
:1027E000F0010160016841F030010160704801258D
:1027F000C0F884511E2004F02EFF6C4C0020C4F859
:10280000A401052004F5D27404F025FF256070BDF5
:1028100070B565480024001D016821F0F0010160D9
:10282000016841F080010160604E0120C6F8A401FA
:102830005F4DC5F8840107E0641CE4B2FA2C03D9AB
:10284000FFF7C9FF012070BD052004F004FFD6F892
:1028500024010028F0D1C5F8840170BD70B5544C36
:102860000025C4F884515048001D016821F0F00192
:102870000160016841F030010160052004F5C27477
:1028800004F0E9FE4948C0F8A451052004F0E3FE35
:1028900001202060052004F0DEFE256070BD70B5CB
:1028A000434C0025C4F884513F48001D016821F0C5
:1028B000F0010160016841F030010160052004F57C
:1028C000C27404F0C8FE39480126C0F8A46105208E
:1028D00004F0C1FE2660052004F0BDFE256070BD39
:1028E0002DE9F04706463048001D016821F0F0014F
:1028F0000160016841F0300101602D4D0027C5F8ED
:102900008471052004F0A7FEDFF8A08000244FF0BA
:102910000109F109C8F8A4117006060EC5F88491E2
:10292000052004F098FEC5F88471052004F093FE9C
:10293000641CE4B2082CECD3BDE8F0872DE9F04725
:10294000824619480024001D016821F0F001016051
:10295000016841F0800101601E2004F07CFE00252A
:10296000134EDFF848902F464FF00108C6F88471E7
:10297000052004F070FEC6F884816006040ED9F8C4
:10298000240108B1641CE4B26D1CEDB2082DEDD336
:10299000BAF1000F03D0FFF761FF2046CCE7FFF745
:1029A0007EFFFAE7000C0140001C0140008023423A
:1029B000008021422DE9F04116460F4604460025CD
:1029C000FFF7E9FE7020FFF78BFFFFF721FFE0B272
:1029D000FFF786FFFFF71CFF002408E0385DFFF7D4
:1029E0007FFFFFF715FF050003D1641CE4B2B4427A
:1029F000F4D3FFF7F0FE2846BDE8F0812DE9F04161
:102A000015460E460446FFF7C6FE7020FFF768FF26
:102A1000FFF7FEFEE0B2FFF763FFFFF7F9FEFFF7F7
:102A2000BAFE7120FFF75CFFFFF7F2FE00246F1E75
:102A300009E0BC4201D0012000E00020FFF77EFF4A
:102A40003055641CE4B2AC42F3D3BDE8F041FFF76B
:102A5000C2BE3EB50121802005F061FB4FF400604D
:102A6000ADF8080010208DF80B000320CD4D8DF837
:102A70000A0002A9284605F068F90221284605F057
:102A8000D2F92C15ADF8084048208DF80B0002A9AA
:102A9000284605F05AF92146284605F0C4F9FFF703
:102AA00056FEC14D0024C5F8AC41142005F5D6757D
:102AB00004F0E8FD01202860322004F0E3FD8DF8E9
:102AC0000040012269460020FFF774FF0122694699
:102AD000A420FFF76FFF16208DF800000122694641
:102AE0008020FFF767FF0C208DF800000122694667
:102AF0008820FFF75FFF02226946A120FFF77EFFD3
:102B00009DF80000302803D19DF8010003282AD049
:102B10000422694648F2401000F0ABF98DF80440F9
:102B20006946A2A02DF0A8FFA348009948F24005ED
:102B3000C0F8021002208DF80000012269462846E4
:102B400000F04AF901226946E81D00F092F90A20D6
:102B500004F098FD8DF8004001226946284600F0F7
:102B60003BF900203EBD43F2030194A02DF084FF09
:102B7000F7E72DE9F14783B000268F4D8DF804600B
:102B80004FF00A096878904C401CC0B2B0FBF9F2D3
:102B900009FB12013746687009B10A2871D28648CC
:102BA0008AA1801C2EF066FA4FF0010203A918B327
:102BB0000220FFF723FF00BF9DF80C00010760D043
:102BC00000F00F01287881425BD8FF228A40D1B201
:102BD000C943B4F8348041F44041A18604EB40007D
:102BE000A1894181218CC183042004F04BFD8DF823
:102BF0000460DFF8DCA184E048F24E18404600F0A3
:102C000038F99DF80C000106D6D5297800F00F00A0
:102C10008842D1D88DF80460012201A9404600F015
:102C2000DBF8C9E7A18E01228240114264D06248DC
:102C300066A1801C2EF01EFA20B366489DF8041091
:102C4000042230F811006946FFF7D8FE94F84400DA
:102C50009DF80010C0079DF8010001F00F0100EB86
:102C6000012138D09DF8040004EB400001849DF858
:102C700002209DF8031002F00F0201EB0221818176
:102C80003AE059E053489DF804100A30042230F825
:102C90001100694600F0EDF894F844009DF8011029
:102CA000C0079DF8000000EB01219DF8040004EB33
:102CB000400005D081819DF802109DF8032018E0A6
:102CC00001849DF802109DF8032001EB0222BAF85E
:102CD0000010891AD3E7BAF80000411A9DF80400E1
:102CE00004EB400081819DF802209DF8031002F062
:102CF0000F0201EB022101849DF80400401C8DF8B5
:102D000004009DF80400297888428BD3A189BAF881
:102D100000200127914204D8218CBAF80200814298
:102D200009D99DF80C0000F00F00012812D9E089A4
:102D3000A081608C20846E701F4824A1801C2EF01E
:102D400099F901009DF80C104FF6FF700FD0C906DD
:102D500023D019E0287804EB40004189A181C08B81
:102D6000208480208DF80C00A4F83480E4E701F082
:102D70008F01802911D007E021F4004003E0A081F9
:102D8000208401F0E000A0866878F02801D985F859
:102D9000019004B03846BDE8F087A18E0A04EED554
:102DA000EAE70000001C0140008023424354502009
:102DB00049443A25730D0A00BC00002043545020BA
:102DC00049443A25780D0A00740000203931310059
:102DD000F4020020603503082DE9F04116460F4645
:102DE00004460025FFF7D7FC2820FFF779FDFFF701
:102DF0000FFD200AFFF774FDFFF70AFDE0B2FFF7B1
:102E00006FFDFFF705FD002408E0385DFFF768FD62
:102E1000FFF7FEFC050003D1641CE4B2B442F4D316
:102E2000FFF7D9FC2846BDE8F08108B500218DF8F0
:102E300000108DF80100BE489DF80020435C491C3D
:102E40001A44C9B28DF80020B829F5D3D0B2C043D6
:102E5000401C8DF80000B822B54948F24700FFF742
:102E6000BBFF0222694648F2FF00FFF7B5FF0020D2
:102E700008BD2DE9F04115460E460446FFF78BFCD0
:102E80002820FFF72DFDFFF7C3FC200AFFF728FDE0
:102E9000FFF7BEFCE0B2FFF723FDFFF7B9FCFFF739
:102EA0007AFC2920FFF71CFDFFF7B2FC00246F1EFF
:102EB00009E0BC4201D0012000E00020FFF73EFD08
:102EC0003055641CE4B2AC42F3D3BDE8F041FFF7E7
:102ED00082BCFEB50121802005F021F94FF400608D
:102EE000ADF8080010208DF80B000320914F8DF8ED
:102EF0000A0002A9384604F028FF0221384604F0EF
:102F000092FF3D15ADF8085048208DF80B0002A93E
:102F1000384604F01AFF2946384604F084FFFFF7CC
:102F200016FC854E0024C6F8AC410A2006F5D6767C
:102F300004F0A8FB012030600A2004F0A3FBADF8E8
:102F4000085028208DF80B0002A9384604F0FDFE39
:102F50002946384604F069FF642004F093FB0422FC
:102F6000694648F24010FFF784FF8DF80440694637
:102F700072A02DF081FD74A168462EF07BF810BB85
:102F800002208DF8000048F24005012269462846DB
:102F9000FFF722FF01226946E81DFFF76AFF9DF84F
:102FA0000010602905D26AA02DF066FD0120FFF710
:102FB0003CFF0A2004F066FB8DF8004001226946C0
:102FC0002846FFF709FF0020FEBD2DE9F14F654FB0
:102FD00000244FF00A0B387886B0401CC0B2B0FB1A
:102FE000FBF20BFB1201604DA146387009B10A28B3
:102FF00077D248F24E16012206A93046FFF739FF74
:103000009DF818004FF0000801060AD500F00F00E7
:10301000062806D28DF80080012269463046FFF767
:10302000DBFE9DF8180001075BD000F00F000628BA
:1030300057D2FF218140C8B28DF80000C04395F8F7
:1030400034A040F44040A886A889A882288C28850E
:103050000126A98E06FA04F0014226D03448042243
:10306000B83002A930F81400FFF703FF95F84400C8
:103070009DF80910C0079DF8080000EB012105EB41
:1030800044000AD001849DF80A109DF80B2001EB42
:103090000221C1F54871818107E081819DF80A20F4
:1030A0009DF80B1002EB01210184641CE4B2052C95
:1030B000CFD32E48A9894FF0010902882E469142AC
:1030C00003D8318C4088814209D99DF8180000F05E
:1030D0000F0001280CD9F089B081708C288487F802
:1030E00000809DF8180000F08F0080280AD016E0BC
:1030F000B08AB081308D308480208DF81800A5F81A
:1031000034A0EEE7A88E010402D520F0800005E08F
:103110004FF6FF71A981298400F0E000A886387875
:10312000F02801D987F800B007B04846BDE8F08F15
:1031300074350308001C0140008023424354502092
:1031400049443A25730D0A00393134370000000034
:1031500044656661756C74205665723A25640D0A83
:1031600000000000C300002074000020F4020020D2
:103170007FB50C4605460121022004F0D9FFADF8C9
:103180000450ADF800400024194DADF80640ADF8EC
:1031900002406946284605F03DFA012211462846BC
:1031A00005F0F6FC1D208DF80C008DF80D40032075
:1031B0008DF80E0001208DF80F0003A804F01BFD10
:1031C0000121284605F0CFFC7FBD10B5084C012138
:1031D000204605F0F2FE002808D00121204605F027
:1031E000F8FEBDE81040012020F00EBE10BD00002A
:1031F0000004004030B587B001214FF4017004F0A5
:103200008EFF4FF4004004F020FF0620ADF81400BC
:1032100000248DF8174005A9A44804F096FDA44D9C
:10322000284605F0D9FE4FF46020CDE902040120C4
:103230008DF804408DF8100000948DF80540694623
:10324000284605F0E5FE0121284605F009FF28463D
:1032500005F023FF2C46204605F024FF0028FAD174
:10326000204605F026FF204605F028FF0028FAD169
:1032700007B030BD10B58E4C014607230122204611
:1032800005F046FF0121204605F01FFF02212046E0
:1032900006F012F80028F9D02046BDE8104005F0ED
:1032A0007BBF2DE9F04100250E4607462C4608E07D
:1032B0003846FFF7DFFF0544052004F0E3F9641CFE
:1032C000E4B2B442F4D3B5FBF6F080B2BDE8F081CD
:1032D00010B586B001214FF4017004F020FF4FF4C7
:1032E000004004F0B2FE724C204605F075FE00214D
:1032F0004FF46020CDE902018DF804100120009107
:103300008DF805108DF810006946204605F080FE06
:10331000012005F0C5FF0121204605F0A1FE204651
:1033200005F0BBFE204605F0BDFE0028FAD1204680
:1033300005F0BFFE204605F0C1FE0028FAD106B018
:1033400010BD10B55A4C014607230122204605F056
:10335000DFFE0121204605F0B8FE0221204605F0DF
:10336000ABFF0028F9D02046BDE8104005F014BF9F
:1033700070B5002425461020FFF7E3FF204484B2F7
:10338000052004F07FF96D1CEDB20A2DF3D30A205D
:10339000B4FBF0F070BD2DE9F04100250E46074664
:1033A0002C4608E03846FFF7CCFF0544052004F022
:1033B00069F9641CE4B2B442F4D3B5FBF6F080B210
:1033C00084E710B514211020FFF7E5FF2FF0EEFF82
:1033D0002FF064FE4FF06632364B2FF035FC02467C
:1033E0000B46354835492FF06FFD354A354B2FF0E8
:1033F0000FFA0022344B2FF057F90022334B2FF0F5
:1034000023FC2FF05DFB00B210BD10B50121CC03F1
:1034100086B0204604F083FE0121204604F091FE90
:103420000021204604F08DFE294C204605F0D4FDF5
:1034300000214FF46020CDE902018DF80410012035
:1034400000918DF805108DF810006946204605F0B2
:10345000DFFD0121204605F003FE204605F01DFE9C
:10346000204605F01FFE0028FAD1204605F021FE77
:10347000204605F023FE0028FAD160E710B5144C71
:10348000014607230122204605F042FE0121204685
:1034900005F01BFE0221204605F00EFF0028F9D0A2
:1034A0002046BDE8104005F077BE0000000801404E
:1034B0000024014066664A3FE17A14AE47E1F63FD8
:1034C00022FDF675E09C713F000039400000594034
:1034D000003C014070B5654C606820F4704060604D
:1034E000606840F440506060E514002229462046A0
:1034F00004F09DFC142004F0C5F801222946204662
:1035000004F095FCBDE870401E2004F0A4B870B52E
:10351000564C0025606820F470406060606840F49C
:1035200000406060E61404E06D1CEDB2012004F080
:1035300092F83146204604F062FC10B1642DF3D3BA
:103540000FE0642D0DD2002504E06D1CEDB20120CA
:1035500004F081F83146204604F051FC18B1642D86
:1035600004D3012070BD642DEFD3FAE7002070BDB5
:1035700070B500244FF400653C4E04E0641CE4B2D6
:10358000012004F068F82946304604F038FC08B100
:10359000642CF3D3002404E0641CE4B2012004F0A2
:1035A0005AF82946304604F02AFC08B9642CF3D3B3
:1035B000282004F050F82946304604F020FC00286A
:1035C00000D0012070BD70B5002004464006050EF5
:1035D000FFF7CEFF641C2843E4B2082CF6D370BD7D
:1035E0002DE9FC410D460646FFF774FFFFF78FFFFC
:1035F00010B10120BDE8FC8100246F46FFF7E3FF16
:103600003855641CE4B2052CF8D39DF800109DF8E1
:1036100001009DF803300A189DF8020003441A4483
:103620009DF804309A4201D1297030700020E1E702
:1036300038B50121080204F072FD4FF40064ADF8C2
:10364000004010208DF803000320084D8DF8020083
:103650006946284604F079FB2146284604F0E3FB3E
:10366000FFF738FFFFF753FF38BD0000002001408F
:103670001CB51748816941F08001816101200090EB
:103680000102019000230322124804F0A8F8BDE8CB
:103690001C40FFF7BABE70B5002506462C46062032
:1036A000FFF7ECFE0544052003F0ECFF641CE4B2D8
:1036B0000A2CF4D30A20B5FBF0F02821B0FBF1F17D
:1036C000642900D96421C1F16400307070BD00002C
:1036D00000100240001C014001B5BDF80000ADF82B
:1036E0000000BDF80000FC49088008BD01B5BDF828
:1036F0000000ADF80000BDF80000F749891C088003
:1037000008BD10B51120FFF7E7FF782003F0BAFFDE
:103710003620FFF7E1FF0020FFF7E8FF3A20FFF730
:10372000DBFF0520FFF7E2FFB220FFF7D5FF0C20FB
:10373000FFF7DCFF0C20FFF7D9FF0020FFF7D6FFD3
:103740003320FFF7D3FF3320FFF7D0FFB720FFF779
:10375000C3FF3520FFF7CAFFBB20FFF7BDFF3220B4
:10376000FFF7C4FFC020FFF7B7FF0C20FFF7BEFF35
:10377000C220FFF7B1FF0120FFF7B8FFC320FFF71A
:10378000ABFF1020FFF7B2FFC420FFF7A5FF2020FA
:10379000FFF7ACFFC620FFF79FFF0F20FFF7A6FF44
:1037A000D020FFF799FFA420FFF7A0FFA120FFF78B
:1037B0009DFFE020FFF790FFD020FFF797FF00204C
:1037C000FFF794FF0220FFF791FF0720FFF78EFF1E
:1037D0000A20FFF78BFF2820FFF788FF3220FFF732
:1037E00085FF4420FFF782FF4220FFF77FFF06207E
:1037F000FFF77CFF0E20FFF779FF1220FFF776FF1F
:103800001420FFF773FF1720FFF770FFE120FFF789
:1038100063FFD020FFF76AFF0020FFF767FF022059
:10382000FFF764FF0720FFF761FF0A20FFF75EFF45
:103830002820FFF75BFF3120FFF758FF5420FFF7E8
:1038400055FF4720FFF752FF0E20FFF74FFF1C20C8
:10385000FFF74CFF1720FFF749FF1B20FFF746FF3C
:103860001E20FFF743FF2A20FFF736FF0020FFF757
:103870003DFF0020FFF73AFF0020FFF737FFEF2062
:10388000FFF734FF2B20FFF727FF0020FFF72EFF65
:103890000020FFF72BFF0120FFF728FF3F20FFF755
:1038A00025FFBDE81040292016E710B5CF20FFF70F
:1038B00013FF0020FFF71AFFC120FFF717FF30208A
:1038C000FFF714FFED20FFF707FF6420FFF70EFF5F
:1038D0000320FFF70BFF1220FFF708FF8120FFF7FF
:1038E00005FFE820FFF7F8FE8520FFF7FFFE102018
:1038F000FFF7FCFE7A20FFF7F9FECB20FFF7ECFE86
:103900003920FFF7F3FE2C20FFF7F0FE0020FFF731
:10391000EDFE3420FFF7EAFE0220FFF7E7FEF72076
:10392000FFF7DAFE2020FFF7E1FEEA20FFF7D4FEE2
:103930000020FFF7DBFE0020FFF7D8FEC020FFF7D6
:10394000CBFE1B20FFF7D2FEC120FFF7C5FE0120F2
:10395000FFF7CCFEC520FFF7BFFE3020FFF7C6FE05
:103960003020FFF7C3FEC720FFF7B6FEB720FFF7F2
:10397000BDFE3620FFF7B0FE4820FFF7B7FE3A2025
:10398000FFF7AAFE5520FFF7B1FEB120FFF7A4FE16
:103990000020FFF7ABFE1A20FFF7A8FEB620FFF7C6
:1039A0009BFE0A20FFF7A2FEA220FFF79FFEF22057
:1039B000FFF792FE0020FFF799FE2620FFF78CFE0E
:1039C0000120FFF793FEE020FFF786FE0F20FFF7B0
:1039D0008DFE2A20FFF78AFE2820FFF787FE0820A9
:1039E000FFF784FE0E20FFF781FE0820FFF77EFE22
:1039F0005420FFF77BFEA920FFF778FE4320FFF756
:103A000075FE0A20FFF772FE0F20FFF76FFE002001
:103A1000FFF76CFE0020FFF769FE0020FFF766FE4F
:103A20000020FFF763FEE120FFF756FE0020FFF7BE
:103A30005DFE1520FFF75AFE1720FFF757FE0720FF
:103A4000FFF754FE1120FFF751FE0620FFF74EFE50
:103A50002B20FFF74BFE5620FFF748FE3C20FFF7D8
:103A600045FE0520FFF742FE1020FFF73FFE0F2026
:103A7000FFF73CFE3F20FFF739FE3F20FFF736FE01
:103A80000F20FFF733FE2B20FFF726FE0020FFF765
:103A90002DFE0020FFF72AFE0120FFF727FE3F2022
:103AA000FFF724FE2A20FFF717FE0020FFF71EFE77
:103AB0000020FFF71BFE0020FFF718FEEF20FFF7A6
:103AC00015FE1120FFF708FE782003F0DBFDBDE8AE
:103AD0001040292000E60000FE07006C10B5ED2024
:103AE000FFF7FAFD0120FFF701FEFE20FFF7FEFDC4
:103AF000EE20FFF7F1FDDE20FFF7F8FD2120FFF7B4
:103B0000F5FDF120FFF7E8FD0120FFF7EFFDDF20D5
:103B1000FFF7E2FD1020FFF7E9FDC420FFF7DCFD11
:103B20008F20FFF7E3FDC620FFF7D6FD0020FFF74B
:103B3000DDFDE220FFF7DAFDE220FFF7D7FDE2200E
:103B4000FFF7D4FDBF20FFF7C7FDAA20FFF7CEFD8A
:103B5000B020FFF7C1FD0D20FFF7C8FD0020FFF7E3
:103B6000C5FD0D20FFF7C2FD0020FFF7BFFD1120AE
:103B7000FFF7BCFD0020FFF7B9FD1920FFF7B6FDE8
:103B80000020FFF7B3FD2120FFF7B0FD0020FFF775
:103B9000ADFD2D20FFF7AAFD0020FFF7A7FD3D207A
:103BA000FFF7A4FD0020FFF7A1FD5D20FFF79EFDBC
:103BB0000020FFF79BFD5D20FFF798FD0020FFF739
:103BC00095FDB120FFF788FD8020FFF78FFD0020D5
:103BD000FFF78CFD8B20FFF789FD0020FFF786FDA6
:103BE0009620FFF783FD0020FFF780FDB220FFF74E
:103BF00073FD0020FFF77AFD0020FFF777FD02201C
:103C0000FFF774FD0020FFF771FD0320FFF76EFD45
:103C10000020FFF76BFDB320FFF75EFD0020FFF7EC
:103C200065FD0020FFF762FD0020FFF75FFD00202B
:103C3000FFF75CFD0020FFF759FD0020FFF756FD60
:103C40000020FFF753FD0020FFF750FD0020FFF795
:103C50004DFD0020FFF74AFD0020FFF747FD002043
:103C6000FFF744FD0020FFF741FD0020FFF73EFD78
:103C70000020FFF73BFD0020FFF738FD0020FFF795
:103C800035FD0020FFF732FD0020FFF72FFD00205B
:103C9000FFF72CFD0020FFF729FD0020FFF726FD90
:103CA0000020FFF723FD0020FFF720FDB420FFF7E1
:103CB00013FD8B20FFF71AFD0020FFF717FD96205C
:103CC000FFF714FD0020FFF711FDA120FFF70EFD07
:103CD0000020FFF70BFDB520FFF7FEFC0220FFF7E9
:103CE00005FD0020FFF702FD0320FFF7FFFC002089
:103CF000FFF7FCFC0420FFF7F9FC0020FFF7F6FCBF
:103D0000B620FFF7E9FC0020FFF7F0FC0020FFF7EA
:103D1000EDFCB720FFF7E0FC0020FFF7E7FC0020F8
:103D2000FFF7E4FC3F20FFF7E1FC0020FFF7DEFC9B
:103D30005E20FFF7DBFC0020FFF7D8FC6420FFF7D4
:103D4000D5FC0020FFF7D2FC8C20FFF7CFFC002031
:103D5000FFF7CCFCAC20FFF7C9FC0020FFF7C6FC46
:103D6000DC20FFF7C3FC0020FFF7C0FC7020FFF74A
:103D7000BDFC0020FFF7BAFC9020FFF7B7FC002045
:103D8000FFF7B4FCEB20FFF7B1FC0020FFF7AEFC1F
:103D9000DC20FFF7ABFC0020FFF7A8FCB820FFF702
:103DA0009BFC0020FFF7A2FC0020FFF79FFC0020F7
:103DB000FFF79CFC0020FFF799FC0020FFF796FC22
:103DC0000020FFF793FC0020FFF790FC0020FFF796
:103DD0008DFCBA20FFF780FC2420FFF787FC002031
:103DE000FFF784FC0020FFF781FC0020FFF77EFC3A
:103DF000C120FFF771FC2020FFF778FC0020FFF7BF
:103E000075FC5420FFF772FC0020FFF76FFCFF20C9
:103E1000FFF76CFC0020FFF769FCC220FFF75CFC99
:103E20000A20FFF763FC0020FFF760FC0420FFF787
:103E30005DFC0020FFF75AFCC320FFF74DFC3C203F
:103E4000FFF754FC0020FFF751FC3A20FFF74EFC2F
:103E50000020FFF74BFC3920FFF748FC0020FFF75C
:103E600045FC3720FFF742FC0020FFF73FFC3C20D9
:103E7000FFF73CFC0020FFF739FC3620FFF736FC4B
:103E80000020FFF733FC3220FFF730FC0020FFF763
:103E90002DFC2F20FFF72AFC0020FFF727FC2C2009
:103EA000FFF724FC0020FFF721FC2920FFF71EFC70
:103EB0000020FFF71BFC2620FFF718FC0020FFF76F
:103EC00015FC2420FFF712FC0020FFF70FFC242034
:103ED000FFF70CFC0020FFF709FC2320FFF706FC8E
:103EE0000020FFF703FC3C20FFF700FC0020FFF759
:103EF000FDFB3620FFF7FAFB0020FFF7F7FB32202F
:103F0000FFF7F4FB0020FFF7F1FB2F20FFF7EEFB9C
:103F10000020FFF7EBFB2C20FFF7E8FB0020FFF76A
:103F2000E5FB2920FFF7E2FB0020FFF7DFFB26205F
:103F3000FFF7DCFB0020FFF7D9FB2420FFF7D6FBBF
:103F40000020FFF7D3FB2420FFF7D0FB0020FFF772
:103F5000CDFB2320FFF7CAFB0020FFF7C7FBC420DF
:103F6000FFF7BAFB6220FFF7C1FB0020FFF7BEFBA3
:103F70000520FFF7BBFB0020FFF7B8FB8420FFF70D
:103F8000B5FB0020FFF7B2FBF020FFF7AFFB0020EE
:103F9000FFF7ACFB1820FFF7A9FB0020FFF7A6FBFB
:103FA000A420FFF7A3FB0020FFF7A0FB1820FFF7DA
:103FB0009DFB0020FFF79AFB5020FFF797FB0020A6
:103FC000FFF794FB0C20FFF791FB0020FFF78EFB1F
:103FD0001720FFF78BFB0020FFF788FB9520FFF7EA
:103FE00085FB0020FFF782FBF320FFF77FFB00201B
:103FF000FFF77CFBE620FFF779FB0020FFF776FB5D
:10400000C520FFF769FB3220FFF770FB0020FFF7A8
:104010006DFB4420FFF76AFB0020FFF767FB65207C
:10402000FFF764FB0020FFF761FB7620FFF75EFBE4
:104030000020FFF75BFB8820FFF758FB0020FFF70D
:1040400055FBC620FFF748FB2020FFF74FFB002061
:10405000FFF74CFB1720FFF749FB0020FFF746FB5B
:104060000120FFF743FB0020FFF740FBC720FFF7CD
:1040700033FB0020FFF73AFB0020FFF737FB00205F
:10408000FFF734FB0020FFF731FBC820FFF724FBCC
:104090000020FFF72BFB0020FFF728FB0020FFF795
:1040A00025FB0020FFF722FBC920FFF715FB0020AE
:1040B000FFF71CFB0020FFF719FB0020FFF716FBA2
:1040C0000020FFF713FB0020FFF710FB0020FFF795
:1040D0000DFB0020FFF70AFB0020FFF707FB002085
:1040E000FFF704FB0020FFF701FB0020FFF7FEFABB
:1040F0000020FFF7FBFA0020FFF7F8FA0020FFF797
:10410000F5FA0020FFF7F2FA0020FFF7EFFAE020BF
:10411000FFF7E2FA1620FFF7E9FA0020FFF7E6FAC8
:104120001C20FFF7E3FA0020FFF7E0FA2120FFF759
:10413000DDFA0020FFF7DAFA3620FFF7D7FA002081
:10414000FFF7D4FA4620FFF7D1FA0020FFF7CEFAA6
:104150005220FFF7CBFA0020FFF7C8FA6420FFF7E0
:10416000C5FA0020FFF7C2FA7A20FFF7BFFA002055
:10417000FFF7BCFA8B20FFF7B9FA0020FFF7B6FA79
:104180009920FFF7B3FA0020FFF7B0FAA820FFF755
:10419000ADFA0020FFF7AAFAB920FFF7A7FA00202E
:1041A000FFF7A4FAC420FFF7A1FA0020FFF79EFA58
:1041B000CA20FFF79BFA0020FFF798FAD220FFF7FA
:1041C00095FA0020FFF792FAD920FFF78FFA002026
:1041D000FFF78CFAE020FFF789FA0020FFF786FA54
:1041E000F320FFF783FA0020FFF780FAE120FFF7C2
:1041F00073FA1620FFF77AFA0020FFF777FA1C20EF
:10420000FFF774FA0020FFF771FA2220FFF76EFA29
:104210000020FFF76BFA3620FFF768FA0020FFF75F
:1042200065FA4520FFF762FA0020FFF75FFA522097
:10423000FFF75CFA0020FFF759FA6420FFF756FAFF
:104240000020FFF753FA7A20FFF750FA0020FFF71B
:104250004DFA8B20FFF74AFA0020FFF747FA992022
:10426000FFF744FA0020FFF741FAA820FFF73EFAD3
:104270000020FFF73BFAB920FFF738FA0020FFF7DC
:1042800035FAC420FFF732FA0020FFF72FFACA20D0
:10429000FFF72CFA0020FFF729FAD220FFF726FAC1
:1042A0000020FFF723FAD820FFF720FA0020FFF7BD
:1042B0001DFAE020FFF71AFA0020FFF717FAF320A3
:1042C000FFF714FA0020FFF711FAE220FFF704FAD3
:1042D0000520FFF70BFA0020FFF708FA0B20FFF785
:1042E00005FA0020FFF702FA1B20FFF7FFF9002074
:1042F000FFF7FCF93420FFF7F9F90020FFF7F6F992
:104300004420FFF7F3F90020FFF7F0F94F20FFF703
:10431000EDF90020FFF7EAF96120FFF7E7F9002047
:10432000FFF7E4F97920FFF7E1F90020FFF7DEF964
:104330008820FFF7DBF90020FFF7D8F99720FFF777
:10434000D5F90020FFF7D2F9A620FFF7CFF900201A
:10435000FFF7CCF9B720FFF7C9F90020FFF7C6F93E
:10436000C220FFF7C3F90020FFF7C0F9C720FFF70D
:10437000BDF90020FFF7BAF9D120FFF7B7F9002007
:10438000FFF7B4F9D620FFF7B1F90020FFF7AEF937
:10439000DD20FFF7ABF90020FFF7A8F9F320FFF7C6
:1043A000A5F90020FFF7A2F9E320FFF795F9052012
:1043B000FFF79CF90020FFF799F90A20FFF796F91B
:1043C0000020FFF793F91C20FFF790F90020FFF77A
:1043D0008DF93320FFF78AF90020FFF787F9442091
:1043E000FFF784F90020FFF781F95020FFF77EF9ED
:1043F0000020FFF77BF96220FFF778F90020FFF734
:1044000075F97820FFF772F90020FFF76FF988201F
:10441000FFF76CF90020FFF769F99720FFF766F9BD
:104420000020FFF763F9A620FFF760F90020FFF7EF
:104430005DF9B720FFF75AF90020FFF757F9C220BE
:10444000FFF754F90020FFF751F9C720FFF74EF9A5
:104450000020FFF74BF9D120FFF748F90020FFF7C4
:1044600045F9D520FFF742F90020FFF73FF9DD209D
:10447000FFF73CF90020FFF739F9F320FFF736F991
:104480000020FFF733F9E420FFF726F90120FFF7BA
:104490002DF90020FFF72AF90120FFF727F9002066
:1044A000FFF724F90220FFF721F90020FFF71EF99A
:1044B0002A20FFF71BF90020FFF718F93C20FFF72F
:1044C00015F90020FFF712F94B20FFF70FF9002034
:1044D000FFF70CF95D20FFF709F90020FFF706F957
:1044E0007420FFF703F90020FFF700F98420FFF79D
:1044F000FDF80020FFF7FAF89320FFF7F7F8002007
:10450000FFF7F4F8A220FFF7F1F80020FFF7EEF82C
:10451000B320FFF7EBF80020FFF7E8F8BE20FFF725
:10452000E5F80020FFF7E2F8C420FFF7DFF80020ED
:10453000FFF7DCF8CD20FFF7D9F80020FFF7D6F819
:10454000D320FFF7D3F80020FFF7D0F8DD20FFF7E6
:10455000CDF80020FFF7CAF8F320FFF7C7F80020D6
:10456000FFF7C4F8E520FFF7B7F80020FFF7BEF823
:104570000020FFF7BBF80020FFF7B8F80020FFF796
:10458000B5F80220FFF7B2F80020FFF7AFF82920B6
:10459000FFF7ACF80020FFF7A9F83C20FFF7A6F8DA
:1045A0000020FFF7A3F84B20FFF7A0F80020FFF74B
:1045B0009DF85D20FFF79AF80020FFF797F8742028
:1045C000FFF794F80020FFF791F88420FFF78EF8AA
:1045D0000020FFF78BF89320FFF788F80020FFF703
:1045E00085F8A220FFF782F80020FFF77FF8B320BC
:1045F000FFF77CF80020FFF779F8BE20FFF776F888
:104600000020FFF773F8C420FFF770F80020FFF7D1
:104610006DF8CD20FFF76AF80020FFF767F8D32088
:10462000FFF764F80020FFF761F8DC20FFF75EF881
:104630000020FFF75BF8F320FFF758F80020FFF7A2
:1046400055F8E620FFF748F81120FFF74FF8002053
:10465000FFF74CF83420FFF749F80020FFF746F841
:104660005620FFF743F80020FFF740F87620FFF7C9
:104670003DF80020FFF73AF87720FFF737F80020E1
:10468000FFF734F86620FFF731F80020FFF72EF827
:104690008820FFF72BF80020FFF728F89920FFF774
:1046A00025F80020FFF722F8BB20FFF71FF80020B5
:1046B000FFF71CF89920FFF719F80020FFF716F80C
:1046C0006620FFF713F80020FFF710F85520FFF7DA
:1046D0000DF80020FFF70AF85520FFF707F8002033
:1046E000FFF704F84520FFF701F80020FEF7FEFF72
:1046F0004320FEF7FBFF0020FEF7F8FF4420FEF703
:10470000F5FF0020FEF7F2FFE720FEF7E5FF32207D
:10471000FEF7ECFF0020FEF7E9FF5520FEF7E6FF6D
:104720000020FEF7E3FF7620FEF7E0FF0020FEF713
:10473000DDFF6620FEF7DAFF0020FEF7D7FF6720D7
:10474000FEF7D4FF0020FEF7D1FF6720FEF7CEFF73
:104750000020FEF7CBFF8720FEF7C8FF0020FEF702
:10476000C5FF9920FEF7C2FF0020FEF7BFFFBB2068
:10477000FEF7BCFF0020FEF7B9FF9920FEF7B6FF59
:104780000020FEF7B3FF7720FEF7B0FF0020FEF712
:10479000ADFF4420FEF7AAFF0020FEF7A7FF56203A
:1047A000FEF7A4FF0020FEF7A1FF2320FEF79EFFE7
:1047B0000020FEF79BFF3320FEF798FF0020FEF756
:1047C00095FF4520FEF792FF0020FEF78FFFE820BF
:1047D000FEF782FF0020FEF789FF0020FEF786FF2C
:1047E0009920FEF783FF0020FEF780FF8720FEF769
:1047F0007DFF0020FEF77AFF8820FEF777FF00207C
:10480000FEF774FF7720FEF771FF0020FEF76EFFC2
:104810006620FEF76BFF0020FEF768FF8820FEF79A
:1048200065FF0020FEF762FFAA20FEF75FFF002071
:10483000FEF75CFFBB20FEF759FF0020FEF756FF96
:104840009920FEF753FF0020FEF750FF6620FEF789
:104850004DFF0020FEF74AFF5520FEF747FF0020DE
:10486000FEF744FF5520FEF741FF0020FEF73EFF14
:104870004420FEF73BFF0020FEF738FF4420FEF700
:1048800035FF0020FEF732FF5520FEF72FFF0020F6
:10489000FEF72CFFE920FEF71FFFAA20FEF726FFF8
:1048A0000020FEF723FF0020FEF720FF0020FEF788
:1048B0001DFF0020FEF710FFAA20FEF717FFCF20F4
:1048C000FEF70AFF0020FEF711FF0020FEF70EFFA3
:1048D0000020FEF70BFF0020FEF708FF0020FEF788
:1048E00005FF0020FEF702FF0020FEF7FFFE00207C
:1048F000FEF7FCFE0020FEF7F9FE0020FEF7F6FEB4
:104900000020FEF7F3FE0020FEF7F0FE0020FEF789
:10491000EDFE0020FEF7EAFE0020FEF7E7FE002095
:10492000FEF7E4FE0020FEF7E1FEF020FEF7D4FEE5
:104930000020FEF7DBFE5020FEF7D8FE0020FEF739
:10494000D5FE0020FEF7D2FE0020FEF7CFFEF320BA
:10495000FEF7C2FE0020FEF7C9FEF920FEF7BCFEFE
:104960000620FEF7C3FE1020FEF7C0FE2920FEF74A
:10497000BDFE0020FEF7BAFE3A20FEF7ADFE552040
:10498000FEF7B4FE1120FEF7A7FE642002F07AFEC7
:104990002920FEF7A1FE3520FEF79EFE0020FEF73F
:1049A000A5FE5120FEF798FEFF20FEF79FFE532044
:1049B000FEF792FE2C20FEF799FE5520FEF78CFEA6
:1049C0008220FEF793FEBDE810402C20FEF784BE47
:1049D00010B51120FEF780FE782002F053FE36203D
:1049E000FEF77AFE4820FEF781FE3A20FEF774FEBD
:1049F0005520FEF77BFEF020FEF76EFEC320FEF78B
:104A000075FEF020FEF768FE9620FEF76FFEB420DC
:104A1000FEF762FE0120FEF769FEB620FEF75CFE9F
:104A20000A20FEF763FEA220FEF760FEB720FEF725
:104A300053FEC620FEF75AFEB920FEF74DFE0220B7
:104A4000FEF754FEE020FEF751FEC020FEF744FEC4
:104A50008020FEF74BFE1620FEF748FEC120FEF731
:104A60003BFE1920FEF742FEC220FEF735FEA720CE
:104A7000FEF73CFEC520FEF72FFE1620FEF736FEA1
:104A8000E820FEF729FE4020FEF730FE8A20FEF7E0
:104A90002DFE0020FEF72AFE0020FEF727FE29202B
:104AA000FEF724FE1920FEF721FEA520FEF71EFECC
:104AB0003320FEF71BFEE020FEF70EFEF020FEF78F
:104AC00015FE0720FEF712FE0D20FEF70FFE042054
:104AD000FEF70CFE0520FEF709FE1420FEF706FE89
:104AE0003620FEF703FE5420FEF700FE4C20FEF7B2
:104AF000FDFD3820FEF7FAFD1320FEF7F7FD142028
:104B0000FEF7F4FD2E20FEF7F1FD3420FEF7EEFD5A
:104B1000E120FEF7E1FDF020FEF7E8FD1020FEF7B2
:104B2000E5FD1420FEF7E2FD0E20FEF7DFFD0C2070
:104B3000FEF7DCFD0820FEF7D9FD3520FEF7D6FD97
:104B40004420FEF7D3FD4C20FEF7D0FD2620FEF7D3
:104B5000CDFD1020FEF7CAFD1220FEF7C7FD2C2068
:104B6000FEF7C4FD3220FEF7C1FDF020FEF7B4FDD4
:104B70003C20FEF7BBFDF020FEF7AEFD6920FEF7FE
:104B8000B5FD782002F07EFD2120FEF7A5FDBDE8F1
:104B900010402920FEF7A0BDFE4A1080901C018025
:104BA00070472DE9F05F4FF4704355211846FFF729
:104BB000F3FF4FF20104AA212046FFF7EDFF651C29
:104BC00052212846FFF7E8FFA61C08213046FFF7D0
:104BD000E3FFE71C01213846FFF7DEFF0D214FF40C
:104BE0003040FFF7D9FF0D214BF20100FFF7D4FF52
:104BF0000D214BF20200FFF7CFFF4FF4364C34216A
:104C00006046FFF7C9FF34214BF20160FFF7C4FF94
:104C100034214BF20260FFF7BFFF4FF431480D2102
:104C20004046FFF7B9FF4BF201190D214846FFF747
:104C3000B3FF0D214BF20210FFF7AEFF4FF4374ADE
:104C400034215046FFF7A8FF4BF2017B3421584630
:104C5000FFF7A2FF34214BF20270FFF79DFF002106
:104C60004FF43240FFF798FF00214BF20120FFF78D
:104C700093FF00214BF20220FFF78EFF24214FF417
:104C80003840FFF789FF24214BF60100FFF784FF2E
:104C900024214BF60200FFF77FFF01214FF43F4034
:104CA000FFF77AFF0F214FF43340FFF775FF0F2115
:104CB0004BF20130FFF770FF0F214BF20230FFF78C
:104CC0006BFF34214FF43940FFF766FF34214BF678
:104CD0000110FFF761FF34214BF60210FFF75CFF74
:104CE00008214FF43540FFF757FF08214BF20150E0
:104CF000FFF752FF08214BF20250FFF74DFF03214F
:104D00004FF44240FFF748FF24214FF43A40FFF7A9
:104D100043FF24214BF60120FFF73EFF24214BF6F1
:104D20000220FFF739FF00214FF43C40FFF734FF2A
:104D300078214BF60140FFF72FFF00214BF6024090
:104D4000FFF72AFF00214FF43D40FFF725FF7821B0
:104D50004BF60150FFF720FF00214BF60250FFF702
:104D60001BFF00214FF43E40FFF716FF64214BF676
:104D70000160FFF711FF00214FF45140FFF70CFFD6
:104D800033214DF20110FFF707FF00214DF2021011
:104D9000FFF702FF34214DF20310FFF7FDFE002163
:104DA0004DF20410FFF7F8FE3A214DF20510FFF71F
:104DB000F3FE00214DF20610FFF7EEFE4A214DF200
:104DC0000710FFF7E9FE00214DF20810FFF7E4FE9F
:104DD0005C214DF20910FFF7DFFE00214DF20A10B1
:104DE000FFF7DAFE81214DF20B10FFF7D5FE00210F
:104DF0004DF20C10FFF7D0FEA6214DF20D10FFF77B
:104E0000CBFE00214DF20E10FFF7C6FEE5214DF25C
:104E10000F10FFF7C1FE01214DF21010FFF7BCFE8D
:104E200013214DF21110FFF7B7FE01214DF21210C0
:104E3000FFF7B2FE54214DF21310FFF7ADFE012132
:104E40004DF21410FFF7A8FE82214DF21510FFF766
:104E5000A3FE01214DF21610FFF79EFECA214DF26E
:104E60001710FFF799FE02214DF21810FFF794FE7C
:104E700000214DF21910FFF78FFE02214DF21A109A
:104E8000FFF78AFE01214DF21B10FFF785FE02217C
:104E90004DF21C10FFF780FE34214DF21D10FFF77C
:104EA0007BFE02214DF21E10FFF776FE67214DF2C8
:104EB0001F10FFF771FE02214DF22010FFF76CFE6C
:104EC00084214DF22110FFF767FE02214DF22210DE
:104ED000FFF762FEA4214DF22310FFF75DFE0221D1
:104EE0004DF22410FFF758FEB7214DF22510FFF7C1
:104EF00053FE02214DF22610FFF74EFECF214DF258
:104F00002710FFF749FE02214DF22810FFF744FE5B
:104F1000DE214DF22910FFF73FFE02214DF22A104B
:104F2000FFF73AFEF2214DF22B10FFF735FE02217A
:104F30004DF22C10FFF730FEFE214DF22D10FFF741
:104F40002BFE03214DF22E10FFF726FE10214DF20D
:104F50002F10FFF721FE03214DF23010FFF71CFE4A
:104F600033214DF23110FFF717FE03214DF23210BD
:104F7000FFF712FE6D214DF23310FFF70DFE0021F9
:104F80004FF45240FFF708FE33214DF20120FFF7A6
:104F900003FE01E0FE07006C00214DF20220FFF746
:104FA000FBFD34214DF20320FFF7F6FD00214DF209
:104FB0000420FFF7F1FD3A214DF20520FFF7ECFD4B
:104FC00000214DF20620FFF7E7FD4A214DF20720B0
:104FD000FFF7E2FD00214DF20820FFF7DDFD5C2127
:104FE0004DF20920FFF7D8FD00214DF20A20FFF70E
:104FF000D3FD81214DF20B20FFF7CEFD00214DF2B4
:105000000C20FFF7C9FDA6214DF20D20FFF7C4FDCE
:1050100000214DF20E20FFF7BFFDE5214DF20F20DC
:10502000FFF7BAFD01214DF21020FFF7B5FD132166
:105030004DF21120FFF7B0FD01214DF21220FFF7D4
:10504000ABFD54214DF21320FFF7A6FD01214DF2D7
:105050001420FFF7A1FD82214DF21520FFF79CFDE2
:1050600001214DF21620FFF797FDCA214DF21720BE
:10507000FFF792FD02214DF21820FFF78DFD002170
:105080004DF21920FFF788FD02214DF21A20FFF79B
:1050900083FD01214DF21B20FFF77EFD02214DF221
:1050A0001C20FFF779FD34214DF21D20FFF774FD20
:1050B00002214DF21E20FFF76FFD67214DF21F20E8
:1050C000FFF76AFD02214DF22020FFF765FD8421E4
:1050D0004DF22120FFF760FD02214DF22220FFF763
:1050E0005BFDA4214DF22320FFF756FD02214DF276
:1050F0002420FFF751FDB7214DF22520FFF74CFD8D
:1051000002214DF22620FFF747FDCF214DF2272047
:10511000FFF742FD02214DF22820FFF73DFDDE2181
:105120004DF22920FFF738FD02214DF22A20FFF72A
:1051300033FDF2214DF22B20FFF72EFD02214DF21F
:105140002C20FFF729FDFE214DF22D20FFF724FD35
:1051500003214DF22E20FFF71FFD10214DF22F20CD
:10516000FFF71AFD03214DF23020FFF715FD332123
:105170004DF23120FFF710FD03214DF23220FFF7F1
:105180000BFD6D214DF23320FFF706FD00214FF49A
:105190005340FFF701FD33214DF20130FFF7FCFCD6
:1051A00000214DF20230FFF7F7FC34214DF20330BD
:1051B000FFF7F2FC00214DF20430FFF7EDFC3A213D
:1051C0004DF20530FFF7E8FC00214DF20630FFF705
:1051D000E3FC4A214DF20730FFF7DEFC00214DF2DF
:1051E0000830FFF7D9FC5C214DF20930FFF7D4FC01
:1051F00000214DF20A30FFF7CFFC81214DF20B3038
:10520000FFF7CAFC00214DF20C30FFF7C5FCA621C8
:105210004DF20D30FFF7C0FC00214DF20E30FFF7CC
:10522000BBFCE5214DF20F30FFF7B6FC01214DF23A
:105230001030FFF7B1FC13214DF21130FFF7ACFC39
:1052400001214DF21230FFF7A7FC54214DF213302B
:10525000FFF7A2FC01214DF21430FFF79DFC8221E3
:105260004DF21530FFF798FC01214DF21630FFF793
:1052700093FCCA214DF21730FFF78EFC02214DF24C
:105280001830FFF789FC00214DF21930FFF784FC3C
:1052900002214DF21A30FFF77FFC01214DF21B3045
:1052A000FFF77AFC02214DF21C30FFF775FC342128
:1052B0004DF21D30FFF770FC02214DF21E30FFF75A
:1052C0006BFC67214DF21F30FFF766FC02214DF2A7
:1052D0002030FFF761FC84214DF22130FFF75CFCA8
:1052E00002214DF22230FFF757FCA4214DF223306A
:1052F000FFF752FC02214DF22430FFF74DFCB7219D
:105300004DF22530FFF748FC02214DF22630FFF721
:1053100043FCCF214DF22730FFF73EFC02214DF236
:105320002830FFF739FCDE214DF22930FFF734FC3D
:1053300002214DF22A30FFF72FFCF2214DF22B30E3
:10534000FFF72AFC02214DF22C30FFF725FCFE214D
:105350004DF22D30FFF720FC03214DF22E30FFF7E8
:105360001BFC10214DF22F30FFF716FC03214DF2EC
:105370003030FFF711FC33214DF23130FFF70CFCD8
:1053800003214DF23230FFF707FC6D214DF233302F
:10539000FFF702FC00214FF45440FFF7FDFB3321DF
:1053A0004DF20140FFF7F8FB00214DF20240FFF7FC
:1053B000F3FB34214DF20340FFF7EEFB00214DF2E9
:1053C0000440FFF7E9FB3A214DF20540FFF7E4FB0B
:1053D00000214DF20640FFF7DFFB4A214DF2074066
:1053E000FFF7DAFB00214DF20840FFF7D5FB5C2107
:1053F0004DF20940FFF7D0FB00214DF20A40FFF7C4
:10540000CBFB81214DF20B40FFF7C6FB00214DF293
:105410000C40FFF7C1FBA6214DF20D40FFF7BCFB8E
:1054200000214DF20E40FFF7B7FBE5214DF20F4092
:10543000FFF7B2FB01214DF21040FFF7ADFB132146
:105440004DF21140FFF7A8FB01214DF21240FFF78A
:10545000A3FB54214DF21340FFF79EFB01214DF2B7
:105460001440FFF799FB82214DF21540FFF794FBA2
:1054700001214DF21640FFF78FFBCA214DF2174074
:10548000FFF78AFB02214DF21840FFF785FB002150
:105490004DF21940FFF780FB02214DF21A40FFF751
:1054A0007BFB01214DF21B40FFF776FB02214DF201
:1054B0001C40FFF771FB34214DF21D40FFF76CFBE0
:1054C00002214DF21E40FFF767FB67214DF21F409E
:1054D000FFF762FB02214DF22040FFF75DFB8421C4
:1054E0004DF22140FFF758FB02214DF22240FFF719
:1054F00053FBA4214DF22340FFF74EFB02214DF256
:105500002440FFF749FBB7214DF22540FFF744FB4C
:1055100002214DF22640FFF73FFBCF214DF22740FD
:10552000FFF73AFB02214DF22840FFF735FBDE2161
:105530004DF22940FFF730FB02214DF22A40FFF7E0
:105540002BFBF2214DF22B40FFF726FB02214DF2FF
:105550002C40FFF721FBFE214DF22D40FFF71CFBF5
:1055600003214DF22E40FFF717FB10214DF22F4083
:10557000FFF712FB03214DF23040FFF70DFB332103
:105580004DF23140FFF708FB03214DF23240FFF7A7
:1055900003FB6D214DF23340FFF7FEFA00214FF47B
:1055A0005540FFF7F9FA33214DF20150FFF7F4FAB5
:1055B00000214DF20250FFF7EFFA34214DF2035073
:1055C000FFF7EAFA00214DF20450FFF7E5FA3A211D
:1055D0004DF20550FFF7E0FA00214DF20650FFF7BB
:1055E000DBFA4A214DF20750FFF7D6FA00214DF2BF
:1055F0000850FFF7D1FA5C214DF20950FFF7CCFAC1
:1056000000214DF20A50FFF7C7FA81214DF20B50ED
:10561000FFF7C2FA00214DF20C50FFF7BDFAA621A8
:105620004DF20D50FFF7B8FA00214DF20E50FFF782
:10563000B3FAE5214DF20F50FFF7AEFA01214DF21A
:105640001050FFF7A9FA13214DF21150FFF7A4FAF9
:1056500001214DF21250FFF79FFA54214DF21350E1
:10566000FFF79AFA01214DF21450FFF795FA8221C3
:105670004DF21550FFF790FA01214DF21650FFF749
:105680008BFACA214DF21750FFF786FA02214DF22C
:105690001850FFF781FA00214DF21950FFF77CFAFC
:1056A00002214DF21A50FFF777FA01214DF21B50FB
:1056B000FFF772FA02214DF21C50FFF76DFA342108
:1056C0004DF21D50FFF768FA02214DF21E50FFF710
:1056D00063FA67214DF21F50FFF75EFA02214DF287
:1056E0002050FFF759FA84214DF22150FFF754FA68
:1056F00002214DF22250FFF74FFAA4214DF2235020
:10570000FFF74AFA02214DF22450FFF745FAB7217C
:105710004DF22550FFF740FA02214DF22650FFF7D7
:105720003BFACF214DF22750FFF736FA02214DF216
:105730002850FFF731FADE214DF22950FFF72CFAFD
:1057400002214DF22A50FFF727FAF2214DF22B5099
:10575000FFF722FA02214DF22C50FFF71DFAFE212D
:105760004DF22D50FFF718FA03214DF22E50FFF79E
:1057700013FA10214DF22F50FFF70EFA03214DF2CC
:105780003050FFF709FA33214DF23150FFF704FA98
:1057900003214DF23250FFF7FFF96D214DF23350E6
:1057A000FFF7FAF900214FF45640FFF7F5F93321DE
:1057B0004DF20160FFF7F0F900214DF20260FFF7B2
:1057C000EBF934214DF20360FFF7E6F900214DF2C9
:1057D0000460FFF7E1F93A214DF20560FFF7DCF9CB
:1057E00000214DF20660FFF7D7F94A214DF207601C
:1057F000FFF7D2F900214DF20860FFF7CDF95C21E7
:105800004DF20960FFF7C8F900214DF20A60FFF779
:10581000C3F981214DF20B60FFF7BEF900214DF273
:105820000C60FFF7B9F9A6214DF20D60FFF7B4F94E
:1058300000214DF20E60FFF7AFF9E5214DF20F6048
:10584000FFF7AAF901214DF21060FFF7A5F9132126
:105850004DF21160FFF7A0F901214DF21260FFF740
:105860009BF954214DF21360FFF796F901214DF297
:105870001460FFF791F982214DF21560FFF78CF962
:1058800001214DF21660FFF787F9CA214DF217602A
:10589000FFF782F902214DF21860FFF77DF9002130
:1058A0004DF21960FFF778F902214DF21A60FFF707
:1058B00073F901214DF21B60FFF76EF902214DF2E1
:1058C0001C60FFF769F934214DF21D60FFF764F9A0
:1058D00002214DF21E60FFF75FF967214DF21F6054
:1058E000FFF75AF902214DF22060FFF755F98421A4
:1058F0004DF22160FFF750F902214DF22260FFF7CF
:105900004BF9A4214DF22360FFF746F902214DF235
:105910002460FFF741F9B7214DF22560FFF73CF90C
:1059200002214DF22660FFF737F9CF214DF22760B3
:10593000FFF732F902214DF22860FFF72DF9DE2141
:105940004DF22960FFF728F902214DF22A60FFF796
:1059500023F9F2214DF22B60FFF71EF902214DF2DF
:105960002C60FFF719F9FE214DF22D60FFF714F9B5
:1059700003214DF22E60FFF70FF910214DF22F6039
:10598000FFF70AF903214DF23060FFF705F93321E3
:105990004DF23160FFF700F903214DF23260FFF75D
:1059A000FBF86D214DF23360FFF7F6F855211846EC
:1059B000FFF7F2F8AA212046FFF7EEF85221284619
:1059C000FFF7EAF808213046FFF7E6F800213846ED
:1059D000FFF7E2F8CC214046FFF7DEF80021484609
:1059E000FFF7DAF805216046FFF7D6F87021504638
:1059F000FFF7D2F870215846FFF7CEF801214FF497
:105A00003840FFF7C9F803214BF60100FFF7C4F84F
:105A100003214BF60200FFF7BFF803214BF603000A
:105A2000FFF7BAF802214FF43C40FFF7B5F8002128
:105A30004BF60140FFF7B0F800214BF60240FFF7AC
:105A4000ABF8D0214FF44940FFF7A6F802214CF6FD
:105A50000110FFF7A1F850214CF60210FFF79CF857
:105A600050214CF60310FFF797F850214CF6041024
:105A7000FFF792F800214FF45450FFF78DF85521AD
:105A80004FF46850FFF788F84FF48850FDF724FE74
:105A9000782001F0E0FDBDE8F05F4FF42450FDF701
:105AA0001BBE10B5FF20FDF717FEFF20FDF71EFE01
:105AB0009820FDF71BFE0620FDF718FEBC20FDF721
:105AC0000BFE0120FDF712FE0F20FDF70FFE6120F7
:105AD000FDF70CFEFF20FDF709FE0120FDF706FE95
